{
	"module-2/task-2/minter.sol": {
		"minter": {
			"abi": [
				{
					"inputs": [
						{
							"internalType": "contract IERC20",
							"name": "_paymentToken",
							"type": "address"
						},
						{
							"internalType": "contract MyNFT",
							"name": "_nftContract",
							"type": "address"
						}
					],
					"stateMutability": "nonpayable",
					"type": "constructor"
				},
				{
					"inputs": [
						{
							"internalType": "address",
							"name": "owner",
							"type": "address"
						}
					],
					"name": "OwnableInvalidOwner",
					"type": "error"
				},
				{
					"inputs": [
						{
							"internalType": "address",
							"name": "account",
							"type": "address"
						}
					],
					"name": "OwnableUnauthorizedAccount",
					"type": "error"
				},
				{
					"anonymous": false,
					"inputs": [
						{
							"indexed": true,
							"internalType": "address",
							"name": "previousOwner",
							"type": "address"
						},
						{
							"indexed": true,
							"internalType": "address",
							"name": "newOwner",
							"type": "address"
						}
					],
					"name": "OwnershipTransferred",
					"type": "event"
				},
				{
					"inputs": [],
					"name": "PRICE",
					"outputs": [
						{
							"internalType": "uint256",
							"name": "",
							"type": "uint256"
						}
					],
					"stateMutability": "view",
					"type": "function"
				},
				{
					"inputs": [
						{
							"internalType": "uint256",
							"name": "tokenId",
							"type": "uint256"
						}
					],
					"name": "mint",
					"outputs": [],
					"stateMutability": "nonpayable",
					"type": "function"
				},
				{
					"inputs": [],
					"name": "nftContract",
					"outputs": [
						{
							"internalType": "contract MyNFT",
							"name": "",
							"type": "address"
						}
					],
					"stateMutability": "view",
					"type": "function"
				},
				{
					"inputs": [],
					"name": "owner",
					"outputs": [
						{
							"internalType": "address",
							"name": "",
							"type": "address"
						}
					],
					"stateMutability": "view",
					"type": "function"
				},
				{
					"inputs": [],
					"name": "paymentToken",
					"outputs": [
						{
							"internalType": "contract IERC20",
							"name": "",
							"type": "address"
						}
					],
					"stateMutability": "view",
					"type": "function"
				},
				{
					"inputs": [],
					"name": "renounceOwnership",
					"outputs": [],
					"stateMutability": "nonpayable",
					"type": "function"
				},
				{
					"inputs": [
						{
							"internalType": "address",
							"name": "newOwner",
							"type": "address"
						}
					],
					"name": "transferOwnership",
					"outputs": [],
					"stateMutability": "nonpayable",
					"type": "function"
				},
				{
					"inputs": [
						{
							"internalType": "address",
							"name": "to",
							"type": "address"
						},
						{
							"internalType": "uint256",
							"name": "amount",
							"type": "uint256"
						}
					],
					"name": "withdrawTokens",
					"outputs": [],
					"stateMutability": "nonpayable",
					"type": "function"
				}
			],
			"devdoc": {
				"errors": {
					"OwnableInvalidOwner(address)": [
						{
							"details": "The owner is not a valid owner account. (eg. `address(0)`)"
						}
					],
					"OwnableUnauthorizedAccount(address)": [
						{
							"details": "The caller account is not authorized to perform an operation."
						}
					]
				},
				"kind": "dev",
				"methods": {
					"owner()": {
						"details": "Returns the address of the current owner."
					},
					"renounceOwnership()": {
						"details": "Leaves the contract without owner. It will not be possible to call `onlyOwner` functions. Can only be called by the current owner. NOTE: Renouncing ownership will leave the contract without an owner, thereby disabling any functionality that is only available to the owner."
					},
					"transferOwnership(address)": {
						"details": "Transfers ownership of the contract to a new account (`newOwner`). Can only be called by the current owner."
					}
				},
				"version": 1
			},
			"evm": {
				"assembly": "    /* \"module-2/task-2/minter.sol\":235:1106  contract minter is Ownable(msg.sender) {... */\n  mstore(0x40, 0x80)\n    /* \"module-2/task-2/minter.sol\":425:560  constructor(IERC20 _paymentToken, MyNFT _nftContract) {... */\n  callvalue\n  dup1\n  iszero\n  tag_1\n  jumpi\n  0x00\n  dup1\n  revert\ntag_1:\n  pop\n  mload(0x40)\n  sub(codesize, bytecodeSize)\n  dup1\n  bytecodeSize\n  dup4\n  codecopy\n  dup2\n  add\n  0x40\n  dup2\n  swap1\n  mstore\n  tag_2\n  swap2\n  tag_3\n  jump\t// in\ntag_2:\n    /* \"module-2/task-2/minter.sol\":262:272  msg.sender */\n  caller\n  dup1\n    /* \"@openzeppelin/contracts/access/Ownable.sol\":1269:1364  if (initialOwner == address(0)) {... */\n  tag_7\n  jumpi\n    /* \"@openzeppelin/contracts/access/Ownable.sol\":1322:1353  OwnableInvalidOwner(address(0)) */\n  mload(0x40)\n  shl(0xe0, 0x1e4fbdf7)\n  dup2\n  mstore\n    /* \"@openzeppelin/contracts/access/Ownable.sol\":1350:1351  0 */\n  0x00\n    /* \"@openzeppelin/contracts/access/Ownable.sol\":1322:1353  OwnableInvalidOwner(address(0)) */\n  0x04\n  dup3\n  add\n    /* \"#utility.yul\":738:789   */\n  mstore\n    /* \"#utility.yul\":711:729   */\n  0x24\n  add\n    /* \"@openzeppelin/contracts/access/Ownable.sol\":1322:1353  OwnableInvalidOwner(address(0)) */\n  mload(0x40)\n  dup1\n  swap2\n  sub\n  swap1\n  revert\n    /* \"@openzeppelin/contracts/access/Ownable.sol\":1269:1364  if (initialOwner == address(0)) {... */\ntag_7:\n    /* \"@openzeppelin/contracts/access/Ownable.sol\":1373:1405  _transferOwnership(initialOwner) */\n  tag_10\n    /* \"@openzeppelin/contracts/access/Ownable.sol\":1392:1404  initialOwner */\n  dup2\n    /* \"@openzeppelin/contracts/access/Ownable.sol\":1373:1391  _transferOwnership */\n  tag_11\n    /* \"@openzeppelin/contracts/access/Ownable.sol\":1373:1405  _transferOwnership(initialOwner) */\n  jump\t// in\ntag_10:\n  pop\n    /* \"module-2/task-2/minter.sol\":489:501  paymentToken */\n  0x01\n    /* \"module-2/task-2/minter.sol\":489:517  paymentToken = _paymentToken */\n  dup1\n  sload\n  sub(shl(0xa0, 0x01), 0x01)\n  swap4\n  dup5\n  and\n  not(sub(shl(0xa0, 0x01), 0x01))\n  swap2\n  dup3\n  and\n  or\n  swap1\n  swap2\n  sstore\n    /* \"module-2/task-2/minter.sol\":527:538  nftContract */\n  0x02\n    /* \"module-2/task-2/minter.sol\":527:553  nftContract = _nftContract */\n  dup1\n  sload\n  swap3\n  swap1\n  swap4\n  and\n  swap2\n  and\n  or\n  swap1\n  sstore\n    /* \"module-2/task-2/minter.sol\":235:1106  contract minter is Ownable(msg.sender) {... */\n  jump(tag_16)\n    /* \"@openzeppelin/contracts/access/Ownable.sol\":2912:3099  function _transferOwnership(address newOwner) internal virtual {... */\ntag_11:\n    /* \"@openzeppelin/contracts/access/Ownable.sol\":2985:3001  address oldOwner */\n  0x00\n    /* \"@openzeppelin/contracts/access/Ownable.sol\":3004:3010  _owner */\n  dup1\n  sload\n  sub(shl(0xa0, 0x01), 0x01)\n    /* \"@openzeppelin/contracts/access/Ownable.sol\":3020:3037  _owner = newOwner */\n  dup4\n  dup2\n  and\n  not(sub(shl(0xa0, 0x01), 0x01))\n  dup4\n  and\n  dup2\n  or\n  dup5\n  sstore\n    /* \"@openzeppelin/contracts/access/Ownable.sol\":3052:3092  OwnershipTransferred(oldOwner, newOwner) */\n  mload(0x40)\n    /* \"@openzeppelin/contracts/access/Ownable.sol\":3004:3010  _owner */\n  swap2\n  swap1\n  swap3\n  and\n  swap3\n  dup4\n  swap2\n    /* \"@openzeppelin/contracts/access/Ownable.sol\":3052:3092  OwnershipTransferred(oldOwner, newOwner) */\n  0x8be0079c531659141344cd1fd0a4f28419497f9722a3daafe3b4186f6b6457e0\n  swap2\n    /* \"@openzeppelin/contracts/access/Ownable.sol\":2985:3001  address oldOwner */\n  swap1\n    /* \"@openzeppelin/contracts/access/Ownable.sol\":3052:3092  OwnershipTransferred(oldOwner, newOwner) */\n  log3\n    /* \"@openzeppelin/contracts/access/Ownable.sol\":2975:3099  {... */\n  pop\n    /* \"@openzeppelin/contracts/access/Ownable.sol\":2912:3099  function _transferOwnership(address newOwner) internal virtual {... */\n  pop\n  jump\t// out\n    /* \"#utility.yul\":14:153   */\ntag_15:\n  sub(shl(0xa0, 0x01), 0x01)\n    /* \"#utility.yul\":97:128   */\n  dup2\n  and\n    /* \"#utility.yul\":87:129   */\n  dup2\n  eq\n    /* \"#utility.yul\":77:147   */\n  tag_18\n  jumpi\n    /* \"#utility.yul\":143:144   */\n  0x00\n    /* \"#utility.yul\":140:141   */\n  dup1\n    /* \"#utility.yul\":133:145   */\n  revert\n    /* \"#utility.yul\":77:147   */\ntag_18:\n    /* \"#utility.yul\":14:153   */\n  pop\n  jump\t// out\n    /* \"#utility.yul\":158:587   */\ntag_3:\n    /* \"#utility.yul\":265:271   */\n  0x00\n    /* \"#utility.yul\":273:279   */\n  dup1\n    /* \"#utility.yul\":326:328   */\n  0x40\n    /* \"#utility.yul\":314:323   */\n  dup4\n    /* \"#utility.yul\":305:312   */\n  dup6\n    /* \"#utility.yul\":301:324   */\n  sub\n    /* \"#utility.yul\":297:329   */\n  slt\n    /* \"#utility.yul\":294:346   */\n  iszero\n  tag_20\n  jumpi\n    /* \"#utility.yul\":342:343   */\n  0x00\n    /* \"#utility.yul\":339:340   */\n  dup1\n    /* \"#utility.yul\":332:344   */\n  revert\n    /* \"#utility.yul\":294:346   */\ntag_20:\n    /* \"#utility.yul\":374:383   */\n  dup3\n    /* \"#utility.yul\":368:384   */\n  mload\n    /* \"#utility.yul\":393:432   */\n  tag_21\n    /* \"#utility.yul\":426:431   */\n  dup2\n    /* \"#utility.yul\":393:432   */\n  tag_15\n  jump\t// in\ntag_21:\n    /* \"#utility.yul\":501:503   */\n  0x20\n    /* \"#utility.yul\":486:504   */\n  dup5\n  add\n    /* \"#utility.yul\":480:505   */\n  mload\n    /* \"#utility.yul\":451:456   */\n  swap1\n  swap3\n  pop\n    /* \"#utility.yul\":514:555   */\n  tag_22\n    /* \"#utility.yul\":480:505   */\n  dup2\n    /* \"#utility.yul\":514:555   */\n  tag_15\n  jump\t// in\ntag_22:\n    /* \"#utility.yul\":574:581   */\n  dup1\n    /* \"#utility.yul\":564:581   */\n  swap2\n  pop\n  pop\n    /* \"#utility.yul\":158:587   */\n  swap3\n  pop\n  swap3\n  swap1\n  pop\n  jump\t// out\n    /* \"#utility.yul\":592:795   */\ntag_16:\n    /* \"module-2/task-2/minter.sol\":235:1106  contract minter is Ownable(msg.sender) {... */\n  dataSize(sub_0)\n  dup1\n  dataOffset(sub_0)\n  0x00\n  codecopy\n  0x00\n  return\nstop\n\nsub_0: assembly {\n        /* \"module-2/task-2/minter.sol\":235:1106  contract minter is Ownable(msg.sender) {... */\n      mstore(0x40, 0x80)\n      callvalue\n      dup1\n      iszero\n      tag_1\n      jumpi\n      0x00\n      dup1\n      revert\n    tag_1:\n      pop\n      jumpi(tag_2, lt(calldatasize, 0x04))\n      shr(0xe0, calldataload(0x00))\n      dup1\n      0x8da5cb5b\n      gt\n      tag_11\n      jumpi\n      dup1\n      0x8da5cb5b\n      eq\n      tag_7\n      jumpi\n      dup1\n      0xa0712d68\n      eq\n      tag_8\n      jumpi\n      dup1\n      0xd56d229d\n      eq\n      tag_9\n      jumpi\n      dup1\n      0xf2fde38b\n      eq\n      tag_10\n      jumpi\n      0x00\n      dup1\n      revert\n    tag_11:\n      dup1\n      0x06b091f9\n      eq\n      tag_3\n      jumpi\n      dup1\n      0x3013ce29\n      eq\n      tag_4\n      jumpi\n      dup1\n      0x715018a6\n      eq\n      tag_5\n      jumpi\n      dup1\n      0x8d859f3e\n      eq\n      tag_6\n      jumpi\n    tag_2:\n      0x00\n      dup1\n      revert\n        /* \"module-2/task-2/minter.sol\":955:1104  function withdrawTokens(address to, uint256 amount) external onlyOwner {... */\n    tag_3:\n      tag_12\n      tag_13\n      calldatasize\n      0x04\n      tag_14\n      jump\t// in\n    tag_13:\n      tag_15\n      jump\t// in\n    tag_12:\n      stop\n        /* \"module-2/task-2/minter.sol\":280:306  IERC20 public paymentToken */\n    tag_4:\n      sload(0x01)\n      tag_16\n      swap1\n      sub(shl(0xa0, 0x01), 0x01)\n      and\n      dup2\n      jump\n    tag_16:\n      mload(0x40)\n      sub(shl(0xa0, 0x01), 0x01)\n        /* \"#utility.yul\":652:707   */\n      swap1\n      swap2\n      and\n        /* \"#utility.yul\":634:708   */\n      dup2\n      mstore\n        /* \"#utility.yul\":622:624   */\n      0x20\n        /* \"#utility.yul\":607:625   */\n      add\n        /* \"module-2/task-2/minter.sol\":280:306  IERC20 public paymentToken */\n    tag_18:\n      mload(0x40)\n      dup1\n      swap2\n      sub\n      swap1\n      return\n        /* \"@openzeppelin/contracts/access/Ownable.sol\":2293:2394  function renounceOwnership() public virtual onlyOwner {... */\n    tag_5:\n      tag_12\n      tag_21\n      jump\t// in\n        /* \"module-2/task-2/minter.sol\":342:387  uint256 public constant PRICE = 10 * 10 ** 18 */\n    tag_6:\n      tag_22\n        /* \"module-2/task-2/minter.sol\":374:387  10 * 10 ** 18 */\n      0x8ac7230489e80000\n        /* \"module-2/task-2/minter.sol\":342:387  uint256 public constant PRICE = 10 * 10 ** 18 */\n      dup2\n      jump\n    tag_22:\n      mload(0x40)\n        /* \"#utility.yul\":865:890   */\n      swap1\n      dup2\n      mstore\n        /* \"#utility.yul\":853:855   */\n      0x20\n        /* \"#utility.yul\":838:856   */\n      add\n        /* \"module-2/task-2/minter.sol\":342:387  uint256 public constant PRICE = 10 * 10 ** 18 */\n      tag_18\n        /* \"#utility.yul\":719:896   */\n      jump\n        /* \"@openzeppelin/contracts/access/Ownable.sol\":1638:1723  function owner() public view virtual returns (address) {... */\n    tag_7:\n        /* \"@openzeppelin/contracts/access/Ownable.sol\":1684:1691  address */\n      0x00\n        /* \"@openzeppelin/contracts/access/Ownable.sol\":1710:1716  _owner */\n      sload\n      sub(shl(0xa0, 0x01), 0x01)\n      and\n        /* \"@openzeppelin/contracts/access/Ownable.sol\":1638:1723  function owner() public view virtual returns (address) {... */\n      jump(tag_16)\n        /* \"module-2/task-2/minter.sol\":566:949  function mint(uint256 tokenId) external {... */\n    tag_8:\n      tag_12\n      tag_31\n      calldatasize\n      0x04\n      tag_32\n      jump\t// in\n    tag_31:\n      tag_33\n      jump\t// in\n        /* \"module-2/task-2/minter.sol\":312:336  MyNFT public nftContract */\n    tag_9:\n      sload(0x02)\n      tag_16\n      swap1\n      sub(shl(0xa0, 0x01), 0x01)\n      and\n      dup2\n      jump\n        /* \"@openzeppelin/contracts/access/Ownable.sol\":2543:2758  function transferOwnership(address newOwner) public virtual onlyOwner {... */\n    tag_10:\n      tag_12\n      tag_39\n      calldatasize\n      0x04\n      tag_40\n      jump\t// in\n    tag_39:\n      tag_41\n      jump\t// in\n        /* \"module-2/task-2/minter.sol\":955:1104  function withdrawTokens(address to, uint256 amount) external onlyOwner {... */\n    tag_15:\n        /* \"@openzeppelin/contracts/access/Ownable.sol\":1531:1544  _checkOwner() */\n      tag_43\n        /* \"@openzeppelin/contracts/access/Ownable.sol\":1531:1542  _checkOwner */\n      tag_44\n        /* \"@openzeppelin/contracts/access/Ownable.sol\":1531:1544  _checkOwner() */\n      jump\t// in\n    tag_43:\n        /* \"module-2/task-2/minter.sol\":1044:1056  paymentToken */\n      sload(0x01)\n        /* \"module-2/task-2/minter.sol\":1044:1077  paymentToken.transfer(to, amount) */\n      mload(0x40)\n      0xa9059cbb00000000000000000000000000000000000000000000000000000000\n      dup2\n      mstore\n      sub(shl(0xa0, 0x01), 0x01)\n        /* \"#utility.yul\":1945:2000   */\n      dup5\n      dup2\n      and\n        /* \"module-2/task-2/minter.sol\":1044:1077  paymentToken.transfer(to, amount) */\n      0x04\n      dup4\n      add\n        /* \"#utility.yul\":1927:2001   */\n      mstore\n        /* \"#utility.yul\":2017:2035   */\n      0x24\n      dup3\n      add\n        /* \"#utility.yul\":2010:2044   */\n      dup5\n      swap1\n      mstore\n        /* \"module-2/task-2/minter.sol\":1044:1056  paymentToken */\n      swap1\n      swap2\n      and\n      swap1\n        /* \"module-2/task-2/minter.sol\":1044:1065  paymentToken.transfer */\n      0xa9059cbb\n      swap1\n        /* \"#utility.yul\":1900:1918   */\n      0x44\n      add\n        /* \"module-2/task-2/minter.sol\":1044:1077  paymentToken.transfer(to, amount) */\n      0x20\n      mload(0x40)\n      dup1\n      dup4\n      sub\n      dup2\n      0x00\n      dup8\n      gas\n      call\n      iszero\n      dup1\n      iszero\n      tag_49\n      jumpi\n      returndatasize\n      0x00\n      dup1\n      returndatacopy\n      revert(0x00, returndatasize)\n    tag_49:\n      pop\n      pop\n      pop\n      pop\n      mload(0x40)\n      returndatasize\n      not(0x1f)\n      0x1f\n      dup3\n      add\n      and\n      dup3\n      add\n      dup1\n      0x40\n      mstore\n      pop\n      dup2\n      add\n      swap1\n      tag_50\n      swap2\n      swap1\n      tag_51\n      jump\t// in\n    tag_50:\n        /* \"module-2/task-2/minter.sol\":1036:1097  require(paymentToken.transfer(to, amount), \"Transfer failed\") */\n      tag_52\n      jumpi\n      mload(0x40)\n      shl(0xe5, 0x461bcd)\n      dup2\n      mstore\n        /* \"#utility.yul\":2539:2541   */\n      0x20\n        /* \"module-2/task-2/minter.sol\":1036:1097  require(paymentToken.transfer(to, amount), \"Transfer failed\") */\n      0x04\n      dup3\n      add\n        /* \"#utility.yul\":2521:2542   */\n      mstore\n        /* \"#utility.yul\":2578:2580   */\n      0x0f\n        /* \"#utility.yul\":2558:2576   */\n      0x24\n      dup3\n      add\n        /* \"#utility.yul\":2551:2581   */\n      mstore\n        /* \"#utility.yul\":2617:2634   */\n      0x5472616e73666572206661696c65640000000000000000000000000000000000\n        /* \"#utility.yul\":2597:2615   */\n      0x44\n      dup3\n      add\n        /* \"#utility.yul\":2590:2635   */\n      mstore\n        /* \"#utility.yul\":2652:2670   */\n      0x64\n      add\n        /* \"module-2/task-2/minter.sol\":1036:1097  require(paymentToken.transfer(to, amount), \"Transfer failed\") */\n    tag_53:\n      mload(0x40)\n      dup1\n      swap2\n      sub\n      swap1\n      revert\n    tag_52:\n        /* \"module-2/task-2/minter.sol\":955:1104  function withdrawTokens(address to, uint256 amount) external onlyOwner {... */\n      pop\n      pop\n      jump\t// out\n        /* \"@openzeppelin/contracts/access/Ownable.sol\":2293:2394  function renounceOwnership() public virtual onlyOwner {... */\n    tag_21:\n        /* \"@openzeppelin/contracts/access/Ownable.sol\":1531:1544  _checkOwner() */\n      tag_56\n        /* \"@openzeppelin/contracts/access/Ownable.sol\":1531:1542  _checkOwner */\n      tag_44\n        /* \"@openzeppelin/contracts/access/Ownable.sol\":1531:1544  _checkOwner() */\n      jump\t// in\n    tag_56:\n        /* \"@openzeppelin/contracts/access/Ownable.sol\":2357:2387  _transferOwnership(address(0)) */\n      tag_58\n        /* \"@openzeppelin/contracts/access/Ownable.sol\":2384:2385  0 */\n      0x00\n        /* \"@openzeppelin/contracts/access/Ownable.sol\":2357:2375  _transferOwnership */\n      tag_59\n        /* \"@openzeppelin/contracts/access/Ownable.sol\":2357:2387  _transferOwnership(address(0)) */\n      jump\t// in\n    tag_58:\n        /* \"@openzeppelin/contracts/access/Ownable.sol\":2293:2394  function renounceOwnership() public virtual onlyOwner {... */\n      jump\t// out\n        /* \"module-2/task-2/minter.sol\":566:949  function mint(uint256 tokenId) external {... */\n    tag_33:\n        /* \"module-2/task-2/minter.sol\":652:663  nftContract */\n      0x02\n      0x00\n      swap1\n      sload\n      swap1\n      0x0100\n      exp\n      swap1\n      div\n      sub(shl(0xa0, 0x01), 0x01)\n      and\n      sub(shl(0xa0, 0x01), 0x01)\n        /* \"module-2/task-2/minter.sol\":652:674  nftContract.MAX_SUPPLY */\n      and\n      0x32cb6b0c\n        /* \"module-2/task-2/minter.sol\":652:676  nftContract.MAX_SUPPLY() */\n      mload(0x40)\n      dup2\n      0xffffffff\n      and\n      0xe0\n      shl\n      dup2\n      mstore\n      0x04\n      add\n      0x20\n      mload(0x40)\n      dup1\n      dup4\n      sub\n      dup2\n      dup7\n      gas\n      staticcall\n      iszero\n      dup1\n      iszero\n      tag_63\n      jumpi\n      returndatasize\n      0x00\n      dup1\n      returndatacopy\n      revert(0x00, returndatasize)\n    tag_63:\n      pop\n      pop\n      pop\n      pop\n      mload(0x40)\n      returndatasize\n      not(0x1f)\n      0x1f\n      dup3\n      add\n      and\n      dup3\n      add\n      dup1\n      0x40\n      mstore\n      pop\n      dup2\n      add\n      swap1\n      tag_64\n      swap2\n      swap1\n      tag_65\n      jump\t// in\n    tag_64:\n        /* \"module-2/task-2/minter.sol\":624:635  nftContract */\n      0x02\n      0x00\n      swap1\n      sload\n      swap1\n      0x0100\n      exp\n      swap1\n      div\n      sub(shl(0xa0, 0x01), 0x01)\n      and\n      sub(shl(0xa0, 0x01), 0x01)\n        /* \"module-2/task-2/minter.sol\":624:647  nftContract.totalSupply */\n      and\n      0x18160ddd\n        /* \"module-2/task-2/minter.sol\":624:649  nftContract.totalSupply() */\n      mload(0x40)\n      dup2\n      0xffffffff\n      and\n      0xe0\n      shl\n      dup2\n      mstore\n      0x04\n      add\n      0x20\n      mload(0x40)\n      dup1\n      dup4\n      sub\n      dup2\n      dup7\n      gas\n      staticcall\n      iszero\n      dup1\n      iszero\n      tag_67\n      jumpi\n      returndatasize\n      0x00\n      dup1\n      returndatacopy\n      revert(0x00, returndatasize)\n    tag_67:\n      pop\n      pop\n      pop\n      pop\n      mload(0x40)\n      returndatasize\n      not(0x1f)\n      0x1f\n      dup3\n      add\n      and\n      dup3\n      add\n      dup1\n      0x40\n      mstore\n      pop\n      dup2\n      add\n      swap1\n      tag_68\n      swap2\n      swap1\n      tag_65\n      jump\t// in\n    tag_68:\n        /* \"module-2/task-2/minter.sol\":624:676  nftContract.totalSupply() < nftContract.MAX_SUPPLY() */\n      lt\n        /* \"module-2/task-2/minter.sol\":616:706  require(nftContract.totalSupply() < nftContract.MAX_SUPPLY(), \"All NFTs have been minted\") */\n      tag_69\n      jumpi\n      mload(0x40)\n      shl(0xe5, 0x461bcd)\n      dup2\n      mstore\n        /* \"#utility.yul\":3072:3074   */\n      0x20\n        /* \"module-2/task-2/minter.sol\":616:706  require(nftContract.totalSupply() < nftContract.MAX_SUPPLY(), \"All NFTs have been minted\") */\n      0x04\n      dup3\n      add\n        /* \"#utility.yul\":3054:3075   */\n      mstore\n        /* \"#utility.yul\":3111:3113   */\n      0x19\n        /* \"#utility.yul\":3091:3109   */\n      0x24\n      dup3\n      add\n        /* \"#utility.yul\":3084:3114   */\n      mstore\n        /* \"#utility.yul\":3150:3177   */\n      0x416c6c204e4654732068617665206265656e206d696e74656400000000000000\n        /* \"#utility.yul\":3130:3148   */\n      0x44\n      dup3\n      add\n        /* \"#utility.yul\":3123:3178   */\n      mstore\n        /* \"#utility.yul\":3195:3213   */\n      0x64\n      add\n        /* \"module-2/task-2/minter.sol\":616:706  require(nftContract.totalSupply() < nftContract.MAX_SUPPLY(), \"All NFTs have been minted\") */\n      tag_53\n        /* \"#utility.yul\":2870:3219   */\n      jump\n        /* \"module-2/task-2/minter.sol\":616:706  require(nftContract.totalSupply() < nftContract.MAX_SUPPLY(), \"All NFTs have been minted\") */\n    tag_69:\n        /* \"module-2/task-2/minter.sol\":775:787  paymentToken */\n      sload(0x01)\n        /* \"module-2/task-2/minter.sol\":775:834  paymentToken.transferFrom(msg.sender, address(this), PRICE) */\n      mload(0x40)\n      0x23b872dd00000000000000000000000000000000000000000000000000000000\n      dup2\n      mstore\n        /* \"module-2/task-2/minter.sol\":801:811  msg.sender */\n      caller\n        /* \"module-2/task-2/minter.sol\":775:834  paymentToken.transferFrom(msg.sender, address(this), PRICE) */\n      0x04\n      dup3\n      add\n        /* \"#utility.yul\":3487:3521   */\n      mstore\n        /* \"module-2/task-2/minter.sol\":821:825  this */\n      address\n        /* \"#utility.yul\":3537:3555   */\n      0x24\n      dup3\n      add\n        /* \"#utility.yul\":3530:3573   */\n      mstore\n        /* \"module-2/task-2/minter.sol\":374:387  10 * 10 ** 18 */\n      0x8ac7230489e80000\n        /* \"#utility.yul\":3589:3607   */\n      0x44\n      dup3\n      add\n        /* \"#utility.yul\":3582:3616   */\n      mstore\n      sub(shl(0xa0, 0x01), 0x01)\n        /* \"module-2/task-2/minter.sol\":775:787  paymentToken */\n      swap1\n      swap2\n      and\n      swap1\n        /* \"module-2/task-2/minter.sol\":775:800  paymentToken.transferFrom */\n      0x23b872dd\n      swap1\n        /* \"#utility.yul\":3399:3417   */\n      0x64\n      add\n        /* \"module-2/task-2/minter.sol\":775:834  paymentToken.transferFrom(msg.sender, address(this), PRICE) */\n      0x20\n      mload(0x40)\n      dup1\n      dup4\n      sub\n      dup2\n      0x00\n      dup8\n      gas\n      call\n      iszero\n      dup1\n      iszero\n      tag_75\n      jumpi\n      returndatasize\n      0x00\n      dup1\n      returndatacopy\n      revert(0x00, returndatasize)\n    tag_75:\n      pop\n      pop\n      pop\n      pop\n      mload(0x40)\n      returndatasize\n      not(0x1f)\n      0x1f\n      dup3\n      add\n      and\n      dup3\n      add\n      dup1\n      0x40\n      mstore\n      pop\n      dup2\n      add\n      swap1\n      tag_76\n      swap2\n      swap1\n      tag_51\n      jump\t// in\n    tag_76:\n        /* \"module-2/task-2/minter.sol\":767:853  require(paymentToken.transferFrom(msg.sender, address(this), PRICE), \"Payment failed\") */\n      tag_77\n      jumpi\n      mload(0x40)\n      shl(0xe5, 0x461bcd)\n      dup2\n      mstore\n        /* \"#utility.yul\":3829:3831   */\n      0x20\n        /* \"module-2/task-2/minter.sol\":767:853  require(paymentToken.transferFrom(msg.sender, address(this), PRICE), \"Payment failed\") */\n      0x04\n      dup3\n      add\n        /* \"#utility.yul\":3811:3832   */\n      mstore\n        /* \"#utility.yul\":3868:3870   */\n      0x0e\n        /* \"#utility.yul\":3848:3866   */\n      0x24\n      dup3\n      add\n        /* \"#utility.yul\":3841:3871   */\n      mstore\n        /* \"#utility.yul\":3907:3923   */\n      0x5061796d656e74206661696c6564000000000000000000000000000000000000\n        /* \"#utility.yul\":3887:3905   */\n      0x44\n      dup3\n      add\n        /* \"#utility.yul\":3880:3924   */\n      mstore\n        /* \"#utility.yul\":3941:3959   */\n      0x64\n      add\n        /* \"module-2/task-2/minter.sol\":767:853  require(paymentToken.transferFrom(msg.sender, address(this), PRICE), \"Payment failed\") */\n      tag_53\n        /* \"#utility.yul\":3627:3965   */\n      jump\n        /* \"module-2/task-2/minter.sol\":767:853  require(paymentToken.transferFrom(msg.sender, address(this), PRICE), \"Payment failed\") */\n    tag_77:\n        /* \"module-2/task-2/minter.sol\":902:913  nftContract */\n      sload(0x02)\n        /* \"module-2/task-2/minter.sol\":902:942  nftContract.mintNFT(msg.sender, tokenId) */\n      mload(0x40)\n      0x3c168eab00000000000000000000000000000000000000000000000000000000\n      dup2\n      mstore\n        /* \"module-2/task-2/minter.sol\":922:932  msg.sender */\n      caller\n        /* \"module-2/task-2/minter.sol\":902:942  nftContract.mintNFT(msg.sender, tokenId) */\n      0x04\n      dup3\n      add\n        /* \"#utility.yul\":1927:2001   */\n      mstore\n        /* \"#utility.yul\":2017:2035   */\n      0x24\n      dup2\n      add\n        /* \"#utility.yul\":2010:2044   */\n      dup4\n      swap1\n      mstore\n      sub(shl(0xa0, 0x01), 0x01)\n        /* \"module-2/task-2/minter.sol\":902:913  nftContract */\n      swap1\n      swap2\n      and\n      swap1\n        /* \"module-2/task-2/minter.sol\":902:921  nftContract.mintNFT */\n      0x3c168eab\n      swap1\n        /* \"#utility.yul\":1900:1918   */\n      0x44\n      add\n        /* \"module-2/task-2/minter.sol\":902:942  nftContract.mintNFT(msg.sender, tokenId) */\n      0x00\n      mload(0x40)\n      dup1\n      dup4\n      sub\n      dup2\n      0x00\n      dup8\n      dup1\n      extcodesize\n      iszero\n      dup1\n      iszero\n      tag_81\n      jumpi\n      0x00\n      dup1\n      revert\n    tag_81:\n      pop\n      gas\n      call\n      iszero\n      dup1\n      iszero\n      tag_83\n      jumpi\n      returndatasize\n      0x00\n      dup1\n      returndatacopy\n      revert(0x00, returndatasize)\n    tag_83:\n      pop\n      pop\n      pop\n      pop\n        /* \"module-2/task-2/minter.sol\":566:949  function mint(uint256 tokenId) external {... */\n      pop\n      jump\t// out\n        /* \"@openzeppelin/contracts/access/Ownable.sol\":2543:2758  function transferOwnership(address newOwner) public virtual onlyOwner {... */\n    tag_41:\n        /* \"@openzeppelin/contracts/access/Ownable.sol\":1531:1544  _checkOwner() */\n      tag_85\n        /* \"@openzeppelin/contracts/access/Ownable.sol\":1531:1542  _checkOwner */\n      tag_44\n        /* \"@openzeppelin/contracts/access/Ownable.sol\":1531:1544  _checkOwner() */\n      jump\t// in\n    tag_85:\n      sub(shl(0xa0, 0x01), 0x01)\n        /* \"@openzeppelin/contracts/access/Ownable.sol\":2627:2649  newOwner == address(0) */\n      dup2\n      and\n        /* \"@openzeppelin/contracts/access/Ownable.sol\":2623:2714  if (newOwner == address(0)) {... */\n      tag_87\n      jumpi\n        /* \"@openzeppelin/contracts/access/Ownable.sol\":2672:2703  OwnableInvalidOwner(address(0)) */\n      mload(0x40)\n      0x1e4fbdf700000000000000000000000000000000000000000000000000000000\n      dup2\n      mstore\n        /* \"@openzeppelin/contracts/access/Ownable.sol\":2700:2701  0 */\n      0x00\n        /* \"@openzeppelin/contracts/access/Ownable.sol\":2672:2703  OwnableInvalidOwner(address(0)) */\n      0x04\n      dup3\n      add\n        /* \"#utility.yul\":634:708   */\n      mstore\n        /* \"#utility.yul\":607:625   */\n      0x24\n      add\n        /* \"@openzeppelin/contracts/access/Ownable.sol\":2672:2703  OwnableInvalidOwner(address(0)) */\n      tag_53\n        /* \"#utility.yul\":474:714   */\n      jump\n        /* \"@openzeppelin/contracts/access/Ownable.sol\":2623:2714  if (newOwner == address(0)) {... */\n    tag_87:\n        /* \"@openzeppelin/contracts/access/Ownable.sol\":2723:2751  _transferOwnership(newOwner) */\n      tag_89\n        /* \"@openzeppelin/contracts/access/Ownable.sol\":2742:2750  newOwner */\n      dup2\n        /* \"@openzeppelin/contracts/access/Ownable.sol\":2723:2741  _transferOwnership */\n      tag_59\n        /* \"@openzeppelin/contracts/access/Ownable.sol\":2723:2751  _transferOwnership(newOwner) */\n      jump\t// in\n    tag_89:\n        /* \"@openzeppelin/contracts/access/Ownable.sol\":2543:2758  function transferOwnership(address newOwner) public virtual onlyOwner {... */\n      pop\n      jump\t// out\n        /* \"@openzeppelin/contracts/access/Ownable.sol\":1796:1958  function _checkOwner() internal view virtual {... */\n    tag_44:\n        /* \"@openzeppelin/contracts/access/Ownable.sol\":1684:1691  address */\n      0x00\n        /* \"@openzeppelin/contracts/access/Ownable.sol\":1710:1716  _owner */\n      sload\n      sub(shl(0xa0, 0x01), 0x01)\n      and\n        /* \"@openzeppelin/contracts/utils/Context.sol\":735:745  msg.sender */\n      caller\n        /* \"@openzeppelin/contracts/access/Ownable.sol\":1855:1878  owner() != _msgSender() */\n      eq\n        /* \"@openzeppelin/contracts/access/Ownable.sol\":1851:1952  if (owner() != _msgSender()) {... */\n      tag_58\n      jumpi\n        /* \"@openzeppelin/contracts/access/Ownable.sol\":1901:1941  OwnableUnauthorizedAccount(_msgSender()) */\n      mload(0x40)\n      0x118cdaa700000000000000000000000000000000000000000000000000000000\n      dup2\n      mstore\n        /* \"@openzeppelin/contracts/utils/Context.sol\":735:745  msg.sender */\n      caller\n        /* \"@openzeppelin/contracts/access/Ownable.sol\":1901:1941  OwnableUnauthorizedAccount(_msgSender()) */\n      0x04\n      dup3\n      add\n        /* \"#utility.yul\":634:708   */\n      mstore\n        /* \"#utility.yul\":607:625   */\n      0x24\n      add\n        /* \"@openzeppelin/contracts/access/Ownable.sol\":1901:1941  OwnableUnauthorizedAccount(_msgSender()) */\n      tag_53\n        /* \"#utility.yul\":474:714   */\n      jump\n        /* \"@openzeppelin/contracts/access/Ownable.sol\":2912:3099  function _transferOwnership(address newOwner) internal virtual {... */\n    tag_59:\n        /* \"@openzeppelin/contracts/access/Ownable.sol\":2985:3001  address oldOwner */\n      0x00\n        /* \"@openzeppelin/contracts/access/Ownable.sol\":3004:3010  _owner */\n      dup1\n      sload\n      sub(shl(0xa0, 0x01), 0x01)\n        /* \"@openzeppelin/contracts/access/Ownable.sol\":3020:3037  _owner = newOwner */\n      dup4\n      dup2\n      and\n      0xffffffffffffffffffffffff0000000000000000000000000000000000000000\n      dup4\n      and\n      dup2\n      or\n      dup5\n      sstore\n        /* \"@openzeppelin/contracts/access/Ownable.sol\":3052:3092  OwnershipTransferred(oldOwner, newOwner) */\n      mload(0x40)\n        /* \"@openzeppelin/contracts/access/Ownable.sol\":3004:3010  _owner */\n      swap2\n      swap1\n      swap3\n      and\n      swap3\n      dup4\n      swap2\n        /* \"@openzeppelin/contracts/access/Ownable.sol\":3052:3092  OwnershipTransferred(oldOwner, newOwner) */\n      0x8be0079c531659141344cd1fd0a4f28419497f9722a3daafe3b4186f6b6457e0\n      swap2\n        /* \"@openzeppelin/contracts/access/Ownable.sol\":2985:3001  address oldOwner */\n      swap1\n        /* \"@openzeppelin/contracts/access/Ownable.sol\":3052:3092  OwnershipTransferred(oldOwner, newOwner) */\n      log3\n        /* \"@openzeppelin/contracts/access/Ownable.sol\":2975:3099  {... */\n      pop\n        /* \"@openzeppelin/contracts/access/Ownable.sol\":2912:3099  function _transferOwnership(address newOwner) internal virtual {... */\n      pop\n      jump\t// out\n        /* \"#utility.yul\":14:210   */\n    tag_99:\n        /* \"#utility.yul\":82:102   */\n      dup1\n      calldataload\n      sub(shl(0xa0, 0x01), 0x01)\n        /* \"#utility.yul\":131:185   */\n      dup2\n      and\n        /* \"#utility.yul\":121:186   */\n      dup2\n      eq\n        /* \"#utility.yul\":111:204   */\n      tag_102\n      jumpi\n        /* \"#utility.yul\":200:201   */\n      0x00\n        /* \"#utility.yul\":197:198   */\n      dup1\n        /* \"#utility.yul\":190:202   */\n      revert\n        /* \"#utility.yul\":111:204   */\n    tag_102:\n        /* \"#utility.yul\":14:210   */\n      swap2\n      swap1\n      pop\n      jump\t// out\n        /* \"#utility.yul\":215:469   */\n    tag_14:\n        /* \"#utility.yul\":283:289   */\n      0x00\n        /* \"#utility.yul\":291:297   */\n      dup1\n        /* \"#utility.yul\":344:346   */\n      0x40\n        /* \"#utility.yul\":332:341   */\n      dup4\n        /* \"#utility.yul\":323:330   */\n      dup6\n        /* \"#utility.yul\":319:342   */\n      sub\n        /* \"#utility.yul\":315:347   */\n      slt\n        /* \"#utility.yul\":312:364   */\n      iszero\n      tag_104\n      jumpi\n        /* \"#utility.yul\":360:361   */\n      0x00\n        /* \"#utility.yul\":357:358   */\n      dup1\n        /* \"#utility.yul\":350:362   */\n      revert\n        /* \"#utility.yul\":312:364   */\n    tag_104:\n        /* \"#utility.yul\":383:412   */\n      tag_105\n        /* \"#utility.yul\":402:411   */\n      dup4\n        /* \"#utility.yul\":383:412   */\n      tag_99\n      jump\t// in\n    tag_105:\n        /* \"#utility.yul\":373:412   */\n      swap5\n        /* \"#utility.yul\":459:461   */\n      0x20\n        /* \"#utility.yul\":444:462   */\n      swap4\n      swap1\n      swap4\n      add\n        /* \"#utility.yul\":431:463   */\n      calldataload\n      swap4\n      pop\n      pop\n      pop\n        /* \"#utility.yul\":215:469   */\n      jump\t// out\n        /* \"#utility.yul\":1132:1312   */\n    tag_32:\n        /* \"#utility.yul\":1191:1197   */\n      0x00\n        /* \"#utility.yul\":1244:1246   */\n      0x20\n        /* \"#utility.yul\":1232:1241   */\n      dup3\n        /* \"#utility.yul\":1223:1230   */\n      dup5\n        /* \"#utility.yul\":1219:1242   */\n      sub\n        /* \"#utility.yul\":1215:1247   */\n      slt\n        /* \"#utility.yul\":1212:1264   */\n      iszero\n      tag_110\n      jumpi\n        /* \"#utility.yul\":1260:1261   */\n      0x00\n        /* \"#utility.yul\":1257:1258   */\n      dup1\n        /* \"#utility.yul\":1250:1262   */\n      revert\n        /* \"#utility.yul\":1212:1264   */\n    tag_110:\n      pop\n        /* \"#utility.yul\":1283:1306   */\n      calldataload\n      swap2\n        /* \"#utility.yul\":1132:1312   */\n      swap1\n      pop\n      jump\t// out\n        /* \"#utility.yul\":1562:1748   */\n    tag_40:\n        /* \"#utility.yul\":1621:1627   */\n      0x00\n        /* \"#utility.yul\":1674:1676   */\n      0x20\n        /* \"#utility.yul\":1662:1671   */\n      dup3\n        /* \"#utility.yul\":1653:1660   */\n      dup5\n        /* \"#utility.yul\":1649:1672   */\n      sub\n        /* \"#utility.yul\":1645:1677   */\n      slt\n        /* \"#utility.yul\":1642:1694   */\n      iszero\n      tag_113\n      jumpi\n        /* \"#utility.yul\":1690:1691   */\n      0x00\n        /* \"#utility.yul\":1687:1688   */\n      dup1\n        /* \"#utility.yul\":1680:1692   */\n      revert\n        /* \"#utility.yul\":1642:1694   */\n    tag_113:\n        /* \"#utility.yul\":1713:1742   */\n      tag_114\n        /* \"#utility.yul\":1732:1741   */\n      dup3\n        /* \"#utility.yul\":1713:1742   */\n      tag_99\n      jump\t// in\n    tag_114:\n        /* \"#utility.yul\":1703:1742   */\n      swap4\n        /* \"#utility.yul\":1562:1748   */\n      swap3\n      pop\n      pop\n      pop\n      jump\t// out\n        /* \"#utility.yul\":2055:2332   */\n    tag_51:\n        /* \"#utility.yul\":2122:2128   */\n      0x00\n        /* \"#utility.yul\":2175:2177   */\n      0x20\n        /* \"#utility.yul\":2163:2172   */\n      dup3\n        /* \"#utility.yul\":2154:2161   */\n      dup5\n        /* \"#utility.yul\":2150:2173   */\n      sub\n        /* \"#utility.yul\":2146:2178   */\n      slt\n        /* \"#utility.yul\":2143:2195   */\n      iszero\n      tag_117\n      jumpi\n        /* \"#utility.yul\":2191:2192   */\n      0x00\n        /* \"#utility.yul\":2188:2189   */\n      dup1\n        /* \"#utility.yul\":2181:2193   */\n      revert\n        /* \"#utility.yul\":2143:2195   */\n    tag_117:\n        /* \"#utility.yul\":2223:2232   */\n      dup2\n        /* \"#utility.yul\":2217:2233   */\n      mload\n        /* \"#utility.yul\":2276:2281   */\n      dup1\n        /* \"#utility.yul\":2269:2282   */\n      iszero\n        /* \"#utility.yul\":2262:2283   */\n      iszero\n        /* \"#utility.yul\":2255:2260   */\n      dup2\n        /* \"#utility.yul\":2252:2284   */\n      eq\n        /* \"#utility.yul\":2242:2302   */\n      tag_114\n      jumpi\n        /* \"#utility.yul\":2298:2299   */\n      0x00\n        /* \"#utility.yul\":2295:2296   */\n      dup1\n        /* \"#utility.yul\":2288:2300   */\n      revert\n        /* \"#utility.yul\":2681:2865   */\n    tag_65:\n        /* \"#utility.yul\":2751:2757   */\n      0x00\n        /* \"#utility.yul\":2804:2806   */\n      0x20\n        /* \"#utility.yul\":2792:2801   */\n      dup3\n        /* \"#utility.yul\":2783:2790   */\n      dup5\n        /* \"#utility.yul\":2779:2802   */\n      sub\n        /* \"#utility.yul\":2775:2807   */\n      slt\n        /* \"#utility.yul\":2772:2824   */\n      iszero\n      tag_121\n      jumpi\n        /* \"#utility.yul\":2820:2821   */\n      0x00\n        /* \"#utility.yul\":2817:2818   */\n      dup1\n        /* \"#utility.yul\":2810:2822   */\n      revert\n        /* \"#utility.yul\":2772:2824   */\n    tag_121:\n      pop\n        /* \"#utility.yul\":2843:2859   */\n      mload\n      swap2\n        /* \"#utility.yul\":2681:2865   */\n      swap1\n      pop\n      jump\t// out\n\n    auxdata: 0xa26469706673582212208600e6bc501cbb36072f42d9b362cbd0a9eeda3680450e4ba1256fa58065e1b064736f6c63430008180033\n}\n",
				"bytecode": {
					"linkReferences": {},
					"object": "608060405234801561000f575f80fd5b506040516107ee3803806107ee83398101604081905261002e916100f4565b338061005357604051631e4fbdf760e01b81525f600482015260240160405180910390fd5b61005c8161008e565b50600180546001600160a01b039384166001600160a01b0319918216179091556002805492909316911617905561012c565b5f80546001600160a01b038381166001600160a01b0319831681178455604051919092169283917f8be0079c531659141344cd1fd0a4f28419497f9722a3daafe3b4186f6b6457e09190a35050565b6001600160a01b03811681146100f1575f80fd5b50565b5f8060408385031215610105575f80fd5b8251610110816100dd565b6020840151909250610121816100dd565b809150509250929050565b6106b5806101395f395ff3fe608060405234801561000f575f80fd5b5060043610610085575f3560e01c80638da5cb5b116100585780638da5cb5b146100f3578063a0712d6814610103578063d56d229d14610116578063f2fde38b14610129575f80fd5b806306b091f9146100895780633013ce291461009e578063715018a6146100ce5780638d859f3e146100d6575b5f80fd5b61009c6100973660046105ea565b61013c565b005b6001546100b1906001600160a01b031681565b6040516001600160a01b0390911681526020015b60405180910390f35b61009c610226565b6100e5678ac7230489e8000081565b6040519081526020016100c5565b5f546001600160a01b03166100b1565b61009c610111366004610612565b610239565b6002546100b1906001600160a01b031681565b61009c610137366004610629565b6104cd565b610144610523565b6001546040517fa9059cbb0000000000000000000000000000000000000000000000000000000081526001600160a01b038481166004830152602482018490529091169063a9059cbb906044016020604051808303815f875af11580156101ad573d5f803e3d5ffd5b505050506040513d601f19601f820116820180604052508101906101d19190610649565b6102225760405162461bcd60e51b815260206004820152600f60248201527f5472616e73666572206661696c6564000000000000000000000000000000000060448201526064015b60405180910390fd5b5050565b61022e610523565b6102375f610568565b565b60025f9054906101000a90046001600160a01b03166001600160a01b03166332cb6b0c6040518163ffffffff1660e01b8152600401602060405180830381865afa158015610289573d5f803e3d5ffd5b505050506040513d601f19601f820116820180604052508101906102ad9190610668565b60025f9054906101000a90046001600160a01b03166001600160a01b03166318160ddd6040518163ffffffff1660e01b8152600401602060405180830381865afa1580156102fd573d5f803e3d5ffd5b505050506040513d601f19601f820116820180604052508101906103219190610668565b1061036e5760405162461bcd60e51b815260206004820152601960248201527f416c6c204e4654732068617665206265656e206d696e746564000000000000006044820152606401610219565b6001546040517f23b872dd000000000000000000000000000000000000000000000000000000008152336004820152306024820152678ac7230489e8000060448201526001600160a01b03909116906323b872dd906064016020604051808303815f875af11580156103e2573d5f803e3d5ffd5b505050506040513d601f19601f820116820180604052508101906104069190610649565b6104525760405162461bcd60e51b815260206004820152600e60248201527f5061796d656e74206661696c65640000000000000000000000000000000000006044820152606401610219565b6002546040517f3c168eab000000000000000000000000000000000000000000000000000000008152336004820152602481018390526001600160a01b0390911690633c168eab906044015f604051808303815f87803b1580156104b4575f80fd5b505af11580156104c6573d5f803e3d5ffd5b5050505050565b6104d5610523565b6001600160a01b038116610517576040517f1e4fbdf70000000000000000000000000000000000000000000000000000000081525f6004820152602401610219565b61052081610568565b50565b5f546001600160a01b03163314610237576040517f118cdaa7000000000000000000000000000000000000000000000000000000008152336004820152602401610219565b5f80546001600160a01b038381167fffffffffffffffffffffffff0000000000000000000000000000000000000000831681178455604051919092169283917f8be0079c531659141344cd1fd0a4f28419497f9722a3daafe3b4186f6b6457e09190a35050565b80356001600160a01b03811681146105e5575f80fd5b919050565b5f80604083850312156105fb575f80fd5b610604836105cf565b946020939093013593505050565b5f60208284031215610622575f80fd5b5035919050565b5f60208284031215610639575f80fd5b610642826105cf565b9392505050565b5f60208284031215610659575f80fd5b81518015158114610642575f80fd5b5f60208284031215610678575f80fd5b505191905056fea26469706673582212208600e6bc501cbb36072f42d9b362cbd0a9eeda3680450e4ba1256fa58065e1b064736f6c63430008180033",
					"opcodes": "PUSH1 0x80 PUSH1 0x40 MSTORE CALLVALUE DUP1 ISZERO PUSH2 0xF JUMPI PUSH0 DUP1 REVERT JUMPDEST POP PUSH1 0x40 MLOAD PUSH2 0x7EE CODESIZE SUB DUP1 PUSH2 0x7EE DUP4 CODECOPY DUP2 ADD PUSH1 0x40 DUP2 SWAP1 MSTORE PUSH2 0x2E SWAP2 PUSH2 0xF4 JUMP JUMPDEST CALLER DUP1 PUSH2 0x53 JUMPI PUSH1 0x40 MLOAD PUSH4 0x1E4FBDF7 PUSH1 0xE0 SHL DUP2 MSTORE PUSH0 PUSH1 0x4 DUP3 ADD MSTORE PUSH1 0x24 ADD PUSH1 0x40 MLOAD DUP1 SWAP2 SUB SWAP1 REVERT JUMPDEST PUSH2 0x5C DUP2 PUSH2 0x8E JUMP JUMPDEST POP PUSH1 0x1 DUP1 SLOAD PUSH1 0x1 PUSH1 0x1 PUSH1 0xA0 SHL SUB SWAP4 DUP5 AND PUSH1 0x1 PUSH1 0x1 PUSH1 0xA0 SHL SUB NOT SWAP2 DUP3 AND OR SWAP1 SWAP2 SSTORE PUSH1 0x2 DUP1 SLOAD SWAP3 SWAP1 SWAP4 AND SWAP2 AND OR SWAP1 SSTORE PUSH2 0x12C JUMP JUMPDEST PUSH0 DUP1 SLOAD PUSH1 0x1 PUSH1 0x1 PUSH1 0xA0 SHL SUB DUP4 DUP2 AND PUSH1 0x1 PUSH1 0x1 PUSH1 0xA0 SHL SUB NOT DUP4 AND DUP2 OR DUP5 SSTORE PUSH1 0x40 MLOAD SWAP2 SWAP1 SWAP3 AND SWAP3 DUP4 SWAP2 PUSH32 0x8BE0079C531659141344CD1FD0A4F28419497F9722A3DAAFE3B4186F6B6457E0 SWAP2 SWAP1 LOG3 POP POP JUMP JUMPDEST PUSH1 0x1 PUSH1 0x1 PUSH1 0xA0 SHL SUB DUP2 AND DUP2 EQ PUSH2 0xF1 JUMPI PUSH0 DUP1 REVERT JUMPDEST POP JUMP JUMPDEST PUSH0 DUP1 PUSH1 0x40 DUP4 DUP6 SUB SLT ISZERO PUSH2 0x105 JUMPI PUSH0 DUP1 REVERT JUMPDEST DUP3 MLOAD PUSH2 0x110 DUP2 PUSH2 0xDD JUMP JUMPDEST PUSH1 0x20 DUP5 ADD MLOAD SWAP1 SWAP3 POP PUSH2 0x121 DUP2 PUSH2 0xDD JUMP JUMPDEST DUP1 SWAP2 POP POP SWAP3 POP SWAP3 SWAP1 POP JUMP JUMPDEST PUSH2 0x6B5 DUP1 PUSH2 0x139 PUSH0 CODECOPY PUSH0 RETURN INVALID PUSH1 0x80 PUSH1 0x40 MSTORE CALLVALUE DUP1 ISZERO PUSH2 0xF JUMPI PUSH0 DUP1 REVERT JUMPDEST POP PUSH1 0x4 CALLDATASIZE LT PUSH2 0x85 JUMPI PUSH0 CALLDATALOAD PUSH1 0xE0 SHR DUP1 PUSH4 0x8DA5CB5B GT PUSH2 0x58 JUMPI DUP1 PUSH4 0x8DA5CB5B EQ PUSH2 0xF3 JUMPI DUP1 PUSH4 0xA0712D68 EQ PUSH2 0x103 JUMPI DUP1 PUSH4 0xD56D229D EQ PUSH2 0x116 JUMPI DUP1 PUSH4 0xF2FDE38B EQ PUSH2 0x129 JUMPI PUSH0 DUP1 REVERT JUMPDEST DUP1 PUSH4 0x6B091F9 EQ PUSH2 0x89 JUMPI DUP1 PUSH4 0x3013CE29 EQ PUSH2 0x9E JUMPI DUP1 PUSH4 0x715018A6 EQ PUSH2 0xCE JUMPI DUP1 PUSH4 0x8D859F3E EQ PUSH2 0xD6 JUMPI JUMPDEST PUSH0 DUP1 REVERT JUMPDEST PUSH2 0x9C PUSH2 0x97 CALLDATASIZE PUSH1 0x4 PUSH2 0x5EA JUMP JUMPDEST PUSH2 0x13C JUMP JUMPDEST STOP JUMPDEST PUSH1 0x1 SLOAD PUSH2 0xB1 SWAP1 PUSH1 0x1 PUSH1 0x1 PUSH1 0xA0 SHL SUB AND DUP2 JUMP JUMPDEST PUSH1 0x40 MLOAD PUSH1 0x1 PUSH1 0x1 PUSH1 0xA0 SHL SUB SWAP1 SWAP2 AND DUP2 MSTORE PUSH1 0x20 ADD JUMPDEST PUSH1 0x40 MLOAD DUP1 SWAP2 SUB SWAP1 RETURN JUMPDEST PUSH2 0x9C PUSH2 0x226 JUMP JUMPDEST PUSH2 0xE5 PUSH8 0x8AC7230489E80000 DUP2 JUMP JUMPDEST PUSH1 0x40 MLOAD SWAP1 DUP2 MSTORE PUSH1 0x20 ADD PUSH2 0xC5 JUMP JUMPDEST PUSH0 SLOAD PUSH1 0x1 PUSH1 0x1 PUSH1 0xA0 SHL SUB AND PUSH2 0xB1 JUMP JUMPDEST PUSH2 0x9C PUSH2 0x111 CALLDATASIZE PUSH1 0x4 PUSH2 0x612 JUMP JUMPDEST PUSH2 0x239 JUMP JUMPDEST PUSH1 0x2 SLOAD PUSH2 0xB1 SWAP1 PUSH1 0x1 PUSH1 0x1 PUSH1 0xA0 SHL SUB AND DUP2 JUMP JUMPDEST PUSH2 0x9C PUSH2 0x137 CALLDATASIZE PUSH1 0x4 PUSH2 0x629 JUMP JUMPDEST PUSH2 0x4CD JUMP JUMPDEST PUSH2 0x144 PUSH2 0x523 JUMP JUMPDEST PUSH1 0x1 SLOAD PUSH1 0x40 MLOAD PUSH32 0xA9059CBB00000000000000000000000000000000000000000000000000000000 DUP2 MSTORE PUSH1 0x1 PUSH1 0x1 PUSH1 0xA0 SHL SUB DUP5 DUP2 AND PUSH1 0x4 DUP4 ADD MSTORE PUSH1 0x24 DUP3 ADD DUP5 SWAP1 MSTORE SWAP1 SWAP2 AND SWAP1 PUSH4 0xA9059CBB SWAP1 PUSH1 0x44 ADD PUSH1 0x20 PUSH1 0x40 MLOAD DUP1 DUP4 SUB DUP2 PUSH0 DUP8 GAS CALL ISZERO DUP1 ISZERO PUSH2 0x1AD JUMPI RETURNDATASIZE PUSH0 DUP1 RETURNDATACOPY RETURNDATASIZE PUSH0 REVERT JUMPDEST POP POP POP POP PUSH1 0x40 MLOAD RETURNDATASIZE PUSH1 0x1F NOT PUSH1 0x1F DUP3 ADD AND DUP3 ADD DUP1 PUSH1 0x40 MSTORE POP DUP2 ADD SWAP1 PUSH2 0x1D1 SWAP2 SWAP1 PUSH2 0x649 JUMP JUMPDEST PUSH2 0x222 JUMPI PUSH1 0x40 MLOAD PUSH3 0x461BCD PUSH1 0xE5 SHL DUP2 MSTORE PUSH1 0x20 PUSH1 0x4 DUP3 ADD MSTORE PUSH1 0xF PUSH1 0x24 DUP3 ADD MSTORE PUSH32 0x5472616E73666572206661696C65640000000000000000000000000000000000 PUSH1 0x44 DUP3 ADD MSTORE PUSH1 0x64 ADD JUMPDEST PUSH1 0x40 MLOAD DUP1 SWAP2 SUB SWAP1 REVERT JUMPDEST POP POP JUMP JUMPDEST PUSH2 0x22E PUSH2 0x523 JUMP JUMPDEST PUSH2 0x237 PUSH0 PUSH2 0x568 JUMP JUMPDEST JUMP JUMPDEST PUSH1 0x2 PUSH0 SWAP1 SLOAD SWAP1 PUSH2 0x100 EXP SWAP1 DIV PUSH1 0x1 PUSH1 0x1 PUSH1 0xA0 SHL SUB AND PUSH1 0x1 PUSH1 0x1 PUSH1 0xA0 SHL SUB AND PUSH4 0x32CB6B0C PUSH1 0x40 MLOAD DUP2 PUSH4 0xFFFFFFFF AND PUSH1 0xE0 SHL DUP2 MSTORE PUSH1 0x4 ADD PUSH1 0x20 PUSH1 0x40 MLOAD DUP1 DUP4 SUB DUP2 DUP7 GAS STATICCALL ISZERO DUP1 ISZERO PUSH2 0x289 JUMPI RETURNDATASIZE PUSH0 DUP1 RETURNDATACOPY RETURNDATASIZE PUSH0 REVERT JUMPDEST POP POP POP POP PUSH1 0x40 MLOAD RETURNDATASIZE PUSH1 0x1F NOT PUSH1 0x1F DUP3 ADD AND DUP3 ADD DUP1 PUSH1 0x40 MSTORE POP DUP2 ADD SWAP1 PUSH2 0x2AD SWAP2 SWAP1 PUSH2 0x668 JUMP JUMPDEST PUSH1 0x2 PUSH0 SWAP1 SLOAD SWAP1 PUSH2 0x100 EXP SWAP1 DIV PUSH1 0x1 PUSH1 0x1 PUSH1 0xA0 SHL SUB AND PUSH1 0x1 PUSH1 0x1 PUSH1 0xA0 SHL SUB AND PUSH4 0x18160DDD PUSH1 0x40 MLOAD DUP2 PUSH4 0xFFFFFFFF AND PUSH1 0xE0 SHL DUP2 MSTORE PUSH1 0x4 ADD PUSH1 0x20 PUSH1 0x40 MLOAD DUP1 DUP4 SUB DUP2 DUP7 GAS STATICCALL ISZERO DUP1 ISZERO PUSH2 0x2FD JUMPI RETURNDATASIZE PUSH0 DUP1 RETURNDATACOPY RETURNDATASIZE PUSH0 REVERT JUMPDEST POP POP POP POP PUSH1 0x40 MLOAD RETURNDATASIZE PUSH1 0x1F NOT PUSH1 0x1F DUP3 ADD AND DUP3 ADD DUP1 PUSH1 0x40 MSTORE POP DUP2 ADD SWAP1 PUSH2 0x321 SWAP2 SWAP1 PUSH2 0x668 JUMP JUMPDEST LT PUSH2 0x36E JUMPI PUSH1 0x40 MLOAD PUSH3 0x461BCD PUSH1 0xE5 SHL DUP2 MSTORE PUSH1 0x20 PUSH1 0x4 DUP3 ADD MSTORE PUSH1 0x19 PUSH1 0x24 DUP3 ADD MSTORE PUSH32 0x416C6C204E4654732068617665206265656E206D696E74656400000000000000 PUSH1 0x44 DUP3 ADD MSTORE PUSH1 0x64 ADD PUSH2 0x219 JUMP JUMPDEST PUSH1 0x1 SLOAD PUSH1 0x40 MLOAD PUSH32 0x23B872DD00000000000000000000000000000000000000000000000000000000 DUP2 MSTORE CALLER PUSH1 0x4 DUP3 ADD MSTORE ADDRESS PUSH1 0x24 DUP3 ADD MSTORE PUSH8 0x8AC7230489E80000 PUSH1 0x44 DUP3 ADD MSTORE PUSH1 0x1 PUSH1 0x1 PUSH1 0xA0 SHL SUB SWAP1 SWAP2 AND SWAP1 PUSH4 0x23B872DD SWAP1 PUSH1 0x64 ADD PUSH1 0x20 PUSH1 0x40 MLOAD DUP1 DUP4 SUB DUP2 PUSH0 DUP8 GAS CALL ISZERO DUP1 ISZERO PUSH2 0x3E2 JUMPI RETURNDATASIZE PUSH0 DUP1 RETURNDATACOPY RETURNDATASIZE PUSH0 REVERT JUMPDEST POP POP POP POP PUSH1 0x40 MLOAD RETURNDATASIZE PUSH1 0x1F NOT PUSH1 0x1F DUP3 ADD AND DUP3 ADD DUP1 PUSH1 0x40 MSTORE POP DUP2 ADD SWAP1 PUSH2 0x406 SWAP2 SWAP1 PUSH2 0x649 JUMP JUMPDEST PUSH2 0x452 JUMPI PUSH1 0x40 MLOAD PUSH3 0x461BCD PUSH1 0xE5 SHL DUP2 MSTORE PUSH1 0x20 PUSH1 0x4 DUP3 ADD MSTORE PUSH1 0xE PUSH1 0x24 DUP3 ADD MSTORE PUSH32 0x5061796D656E74206661696C6564000000000000000000000000000000000000 PUSH1 0x44 DUP3 ADD MSTORE PUSH1 0x64 ADD PUSH2 0x219 JUMP JUMPDEST PUSH1 0x2 SLOAD PUSH1 0x40 MLOAD PUSH32 0x3C168EAB00000000000000000000000000000000000000000000000000000000 DUP2 MSTORE CALLER PUSH1 0x4 DUP3 ADD MSTORE PUSH1 0x24 DUP2 ADD DUP4 SWAP1 MSTORE PUSH1 0x1 PUSH1 0x1 PUSH1 0xA0 SHL SUB SWAP1 SWAP2 AND SWAP1 PUSH4 0x3C168EAB SWAP1 PUSH1 0x44 ADD PUSH0 PUSH1 0x40 MLOAD DUP1 DUP4 SUB DUP2 PUSH0 DUP8 DUP1 EXTCODESIZE ISZERO DUP1 ISZERO PUSH2 0x4B4 JUMPI PUSH0 DUP1 REVERT JUMPDEST POP GAS CALL ISZERO DUP1 ISZERO PUSH2 0x4C6 JUMPI RETURNDATASIZE PUSH0 DUP1 RETURNDATACOPY RETURNDATASIZE PUSH0 REVERT JUMPDEST POP POP POP POP POP JUMP JUMPDEST PUSH2 0x4D5 PUSH2 0x523 JUMP JUMPDEST PUSH1 0x1 PUSH1 0x1 PUSH1 0xA0 SHL SUB DUP2 AND PUSH2 0x517 JUMPI PUSH1 0x40 MLOAD PUSH32 0x1E4FBDF700000000000000000000000000000000000000000000000000000000 DUP2 MSTORE PUSH0 PUSH1 0x4 DUP3 ADD MSTORE PUSH1 0x24 ADD PUSH2 0x219 JUMP JUMPDEST PUSH2 0x520 DUP2 PUSH2 0x568 JUMP JUMPDEST POP JUMP JUMPDEST PUSH0 SLOAD PUSH1 0x1 PUSH1 0x1 PUSH1 0xA0 SHL SUB AND CALLER EQ PUSH2 0x237 JUMPI PUSH1 0x40 MLOAD PUSH32 0x118CDAA700000000000000000000000000000000000000000000000000000000 DUP2 MSTORE CALLER PUSH1 0x4 DUP3 ADD MSTORE PUSH1 0x24 ADD PUSH2 0x219 JUMP JUMPDEST PUSH0 DUP1 SLOAD PUSH1 0x1 PUSH1 0x1 PUSH1 0xA0 SHL SUB DUP4 DUP2 AND PUSH32 0xFFFFFFFFFFFFFFFFFFFFFFFF0000000000000000000000000000000000000000 DUP4 AND DUP2 OR DUP5 SSTORE PUSH1 0x40 MLOAD SWAP2 SWAP1 SWAP3 AND SWAP3 DUP4 SWAP2 PUSH32 0x8BE0079C531659141344CD1FD0A4F28419497F9722A3DAAFE3B4186F6B6457E0 SWAP2 SWAP1 LOG3 POP POP JUMP JUMPDEST DUP1 CALLDATALOAD PUSH1 0x1 PUSH1 0x1 PUSH1 0xA0 SHL SUB DUP2 AND DUP2 EQ PUSH2 0x5E5 JUMPI PUSH0 DUP1 REVERT JUMPDEST SWAP2 SWAP1 POP JUMP JUMPDEST PUSH0 DUP1 PUSH1 0x40 DUP4 DUP6 SUB SLT ISZERO PUSH2 0x5FB JUMPI PUSH0 DUP1 REVERT JUMPDEST PUSH2 0x604 DUP4 PUSH2 0x5CF JUMP JUMPDEST SWAP5 PUSH1 0x20 SWAP4 SWAP1 SWAP4 ADD CALLDATALOAD SWAP4 POP POP POP JUMP JUMPDEST PUSH0 PUSH1 0x20 DUP3 DUP5 SUB SLT ISZERO PUSH2 0x622 JUMPI PUSH0 DUP1 REVERT JUMPDEST POP CALLDATALOAD SWAP2 SWAP1 POP JUMP JUMPDEST PUSH0 PUSH1 0x20 DUP3 DUP5 SUB SLT ISZERO PUSH2 0x639 JUMPI PUSH0 DUP1 REVERT JUMPDEST PUSH2 0x642 DUP3 PUSH2 0x5CF JUMP JUMPDEST SWAP4 SWAP3 POP POP POP JUMP JUMPDEST PUSH0 PUSH1 0x20 DUP3 DUP5 SUB SLT ISZERO PUSH2 0x659 JUMPI PUSH0 DUP1 REVERT JUMPDEST DUP2 MLOAD DUP1 ISZERO ISZERO DUP2 EQ PUSH2 0x642 JUMPI PUSH0 DUP1 REVERT JUMPDEST PUSH0 PUSH1 0x20 DUP3 DUP5 SUB SLT ISZERO PUSH2 0x678 JUMPI PUSH0 DUP1 REVERT JUMPDEST POP MLOAD SWAP2 SWAP1 POP JUMP INVALID LOG2 PUSH5 0x6970667358 0x22 SLT KECCAK256 DUP7 STOP 0xE6 0xBC POP SHR 0xBB CALLDATASIZE SMOD 0x2F TIMESTAMP 0xD9 0xB3 PUSH3 0xCBD0A9 0xEE 0xDA CALLDATASIZE DUP1 GASLIMIT 0xE 0x4B LOG1 0x25 PUSH16 0xA58065E1B064736F6C63430008180033 "
				},
				"gasEstimates": {
					"creation": {
						"codeDepositCost": "343400",
						"executionCost": "infinite",
						"totalCost": "infinite"
					},
					"external": {
						"PRICE()": "261",
						"mint(uint256)": "infinite",
						"nftContract()": "2369",
						"owner()": "2318",
						"paymentToken()": "2348",
						"renounceOwnership()": "infinite",
						"transferOwnership(address)": "28380",
						"withdrawTokens(address,uint256)": "infinite"
					}
				},
				"methodIdentifiers": {
					"PRICE()": "8d859f3e",
					"mint(uint256)": "a0712d68",
					"nftContract()": "d56d229d",
					"owner()": "8da5cb5b",
					"paymentToken()": "3013ce29",
					"renounceOwnership()": "715018a6",
					"transferOwnership(address)": "f2fde38b",
					"withdrawTokens(address,uint256)": "06b091f9"
				}
			},
			"storageLayout": {
				"storage": [
					{
						"astId": 8,
						"contract": "module-2/task-2/minter.sol:minter",
						"label": "_owner",
						"offset": 0,
						"slot": "0",
						"type": "t_address"
					},
					{
						"astId": 3026,
						"contract": "module-2/task-2/minter.sol:minter",
						"label": "paymentToken",
						"offset": 0,
						"slot": "1",
						"type": "t_contract(IERC20)362"
					},
					{
						"astId": 3029,
						"contract": "module-2/task-2/minter.sol:minter",
						"label": "nftContract",
						"offset": 0,
						"slot": "2",
						"type": "t_contract(MyNFT)3182"
					}
				],
				"types": {
					"t_address": {
						"encoding": "inplace",
						"label": "address",
						"numberOfBytes": "20"
					},
					"t_contract(IERC20)362": {
						"encoding": "inplace",
						"label": "contract IERC20",
						"numberOfBytes": "20"
					},
					"t_contract(MyNFT)3182": {
						"encoding": "inplace",
						"label": "contract MyNFT",
						"numberOfBytes": "20"
					}
				}
			},
			"userdoc": {
				"kind": "user",
				"methods": {},
				"version": 1
			}
		}
	}
}